:020000040800F2
:1000000000000320853000083D2F00083F2F000826
:10001000412F0008432F0008452F00080000000072
:10002000000000000000000000000000472F000852
:10003000492F0008000000004B2F00084D2F00083A
:10004000DD300008DD300008DD300008DD3000085C
:10005000DD300008DD300008DD300008DD3000084C
:10006000DD300008DD300008DD300008DD3000083C
:10007000DD300008DD300008DD300008DD3000082C
:10008000DD300008DD300008DD300008DD3000081C
:10009000DD300008DD300008DD300008DD3000080C
:1000A000DD300008DD300008DD300008DD300008FC
:1000B000DD300008DD300008DD300008DD300008EC
:1000C000DD300008DD300008DD300008DD300008DC
:1000D000DD300008DD300008DD300008DD300008CC
:1000E000DD300008DD300008DD300008DD300008BC
:1000F000DD300008DD300008DD300008DD300008AC
:10010000DD300008DD300008DD300008DD3000089B
:10011000DD300008DD300008DD300008DD3000088B
:10012000DD300008DD300008DD300008DD3000087B
:0C013000DD300008DD300008DD30000884
:1001400010B5054C237833B9044B13B10448AFF311
:1001500000800123237010BD70000020000000000B
:10016000503B000808B5034B1BB103490348AFF3EC
:10017000008008BD0000000074000020503B000813
:1001800053B94AB9002908BF00281CBF4FF0FF31FE
:100190004FF0FF3000F088B9ADF1080C6DE904CEE6
:1001A00000F006F8DDF804E0DDE9022304B0704752
:1001B0002DE9F047089D8E4604468846002B4AD11B
:1001C0008A42174662D9B2FA82F64EB1C6F12003CE
:1001D00001FA06F820FA03F3B74043EA0808B440EE
:1001E0004FEA174E1FFA87FCB8FBFEF1230C0EFBFB
:1001F000118843EA084301FB0CF29A4209D9FB1823
:1002000001F1FF3080F0EA809A4240F2E780023943
:100210003B449A1AA3B2B2FBFEF00EFB102243EA53
:10022000024300FB0CFC9C4509D9FB1800F1FF328E
:1002300080F0D6809C4540F2D3803B44023840EAAF
:100240000140A3EB0C0300211DB1F3400022C5E9DE
:100250000032BDE8F0878B4205D90DB1C5E9000138
:1002600000210846F5E7B3FA83F1002946D173452A
:1002700002D3824200F20581841A6EEB0302012050
:100280009046002DE5D0C5E90048E2E7002A00F0DD
:100290009080B2FA82F6002E40F0A4808A1A030CF5
:1002A0004FEA174E80B2BCB20121B2FBFEFC0EFB3E
:1002B0001C2243EA024304FB0CF29A4207D9FB18C2
:1002C0000CF1FF3802D29A4200F2E080C4469B1A39
:1002D000B3FBFEF20EFB123340EA034302FB04F4CD
:1002E0009C4207D9FB1802F1FF3002D29C4200F277
:1002F000CA8002461B1B42EA0C40A5E7C1F120065A
:100300008B4022FA06F71F430EFA01F420FA06F397
:100310002EFA06FE4FEA1749234300FA01F81FFAA6
:1003200087FCBEFBF9F01C0C09FB10EE44EA0E44FE
:1003300000FB0CFEA64502FA01F209D93C1900F1B6
:10034000FF3A80F09C80A64540F2998002383C44F8
:10035000A4EB0E041FFA83FEB4FBF9F309FB13446C
:100360004EEA044403FB0CFCA44508D93C1903F1F4
:10037000FF3E80F08280A4457FD9023B3C4443EAA3
:100380000040A4EB0C04A0FB02EC64457346E1467C
:1003900062D35FD05DB1B8EB030264EB090404FAE9
:1003A00006F622FA01F31E43CC40C5E900640021A1
:1003B0004FE7B1FBF2FC010C41EA0E4180B240EA8A
:1003C00001423B4638463C46B846BE462026B1FB75
:1003D000F7F1A2EB080241EA0C4166E7014618E793
:1003E00010462CE7C6F120022EFA02F3B740B140C6
:1003F00020FA02F24FEA174E0A43B3FBFEF8BCB2F2
:100400000EFB1833110C41EA034108FB04F9B0401C
:1004100089454FEA104380B23ED9791808F1FF3C74
:1004200001D289451FD8A1EB0901B1FBFEF909FBF7
:1004300004F80EFB191192B242EA0142424529D258
:10044000BA1809F1FF31C4D24245C2D2A9F1020162
:100450003A44BEE7F0459DD2BEEB02036CEB070CBD
:100460000138E14696E7A7EB09094944A8F1020CD7
:10047000B1FBFEF909FB04F8DBE773467FE7504662
:1004800066E70846FDE63B44023A33E7ACF1020C6E
:100490003B441CE749469CE7A1EB0901C446B1FB7C
:1004A000FEF909FB04F8C4E7704700BF0000000034
:1004B00001F0FF01102A2BDB10F0070F08D010F815
:1004C000013B013A8B422DD010F0070F42B3F6D119
:1004D000F0B441EA012141EA014122F007047FF032
:1004E00000070023F0E80256083C85EA010586EA89
:1004F000010685FA47F5A3FA87F586FA47F6A5FAC5
:1005000087F68EB9EED1F0BC01F0FF0102F00702D0
:1005100032B110F8013B013A83EA010313B1F8D17B
:100520000020704701387047002D06BF354603385C
:10053000073815F0010F07D1013015F4807F02BF95
:10054000013015F4C03F0130F0BC0138704700BFE6
:10055000002310B50446C0E90033C0E904338360CA
:1005600081814366C2818361194608225C3000F0B4
:10057000F4F80D4B63620D4BA3620D4BE3620D4B20
:1005800023630D4B24629C4206D003F1680294421F
:1005900002D0D0339C4205D104F15800BDE8104090
:1005A00000F04EB910BD00BFD5060008F7060008E0
:1005B0002F070008530700088C000020024A034957
:1005C000034800F069B800BF08000020410B000894
:1005D0001800002041680C4B994210B5044601D028
:1005E00000F0AEFAA168094B994202D0204600F013
:1005F000A7FAE168064B994204D02046BDE81040B6
:1006000000F09EBA10BD00BF8C000020F400002056
:100610005C01002010B50B4B0B4C0C4A1A602046B5
:1006200000220421FFF794FF04F168000122092150
:10063000FFF78EFF04F1D0000222BDE81040122126
:10064000FFF786BFC40100208C000020BD05000814
:10065000014800F0F6B800BFCD010020014800F0CD
:10066000F1B800BFCD01002010B50446FFF7F0FF40
:10067000236A1BB1BDE81040FFF7F0BF044B2362B3
:10068000044B1B68002BF5D1FFF7C4FFF2E700BF56
:10069000D5050008C40100202DE9F8430746884627
:1006A00014460026D4E90195B9F1010905D524685D
:1006B000002CF7D13046BDE8F883AB89012B07D970
:1006C000B5F90E30013303D029463846C0470643FA
:1006D0006835E9E710B50C46B1F90E1000F068F87E
:1006E0000028ABBF636DA3891B1823F48053ACBFF4
:1006F0006365A38110BD2DE9F0411F468B89DB05A1
:1007000005460C46164605D5B1F90E100223002207
:1007100000F03CF8A389B4F90E1023F48053A381B0
:1007200032463B462846BDE8F04100F053B810B5CC
:100730000C46B1F90E1000F029F8431CA38915BF2F
:10074000606523F4805343F48053A38118BFA381D1
:1007500010BDB1F90E1000F009B8024403469342EF
:1007600000D1704703F8011BF9E7000038B5064DCA
:100770000023044608462B6002F06CFC431C02D1A7
:100780002B6803B1236038BDC801002038B5074D80
:1007900004460846114600222A601A4602F064FC0C
:1007A000431C02D12B6803B1236038BDC80100206F
:1007B00038B5074D04460846114600222A601A46FD
:1007C00002F02CFC431C02D12B6803B1236038BD1E
:1007D000C801002038B5074D0446084611460022DE
:1007E0002A601A4602F028FC431C02D12B6803B190
:1007F000236038BDC801002070B50D4D0D4C641B41
:10080000A4100026A64209D10B4D0C4C03F0A0F910
:10081000641BA4100026A64205D170BD55F8043B08
:1008200098470136EEE755F8043B98470136F2E762
:10083000203D0008203D0008203D0008243D000820
:10084000704770477047000038B50546002941D011
:1008500051F8043C0C1F002BB8BFE41800F0E0F87E
:100860001D4A136833B9636014602846BDE83840F8
:1008700000F0DCB8A34208D9206821188B4201BFE0
:1008800019685B6809182160EDE71A465B680BB1CF
:10089000A342FAD911685018A0420BD12068014434
:1008A000501883421160E0D118685B6853600844B7
:1008B0001060DAE702D90C232B60D6E720682118F4
:1008C0008B4204BF19685B68636004BF091821602C
:1008D0005460CAE738BD00BFD401002070B50F4E88
:1008E0000C463168054611B900F052F930602146D6
:1008F000284600F04DF9431C03D14FF0FF34204649
:1009000070BDC41C24F00304A042F8D0211A28466C
:1009100000F03EF90130F2D1EFE700BFD001002036
:100920002DE9F843CD1C25F0030508350C2D38BF03
:100930000C25002D064601DBA94204D90C233360A7
:100940000020BDE8F883DFF8D48000F069F8D8F81B
:1009500000301C4644BB29463046FFF7BFFF431C0E
:10096000044658D1D8F800402746002F43D1002C28
:100970004BD023683946304604EB030900F008F9F0
:10098000814542D121686D1A29463046FFF7A6FFFE
:1009900001303AD023682B442360D8F800305A68DD
:1009A00062BBC8F800700FE02268521B20D40B2AEB
:1009B00017D96119A342256018BF5960636808BF41
:1009C000C8F8001062514B60304600F02FF804F177
:1009D0000B00231D20F00700C21A1CBF1B1AA350D6
:1009E000AFE76268A3420CBFC8F800205A60EBE78B
:1009F00023466468AEE73C467F68B6E71A465B6804
:100A0000A342FBD100235360DEE70C233360304662
:100A100000F00CF894E70560D6E700BFD401002091
:100A20000148FFF70EBF00BFCC0100200148FFF7CF
:100A300009BF00BFCC010020B1F90C202DE9F04125
:100A4000160705460C4654D44B68002B02DC0B6C91
:100A5000002B48DDE66A002E45D0002312F48052B8
:100A60002F68216A2B6030D0626DA389590705D5A4
:100A70006368D21A636B0BB1236CD21A0023E66A47
:100A8000216A2846B047431CA38906D129681D293D
:100A90002BD82A4ACA40D60727D500226260D9043B
:100AA0002269226004D5421C01D12B6803B960651C
:100AB000616B2F60B9B104F14403994202D028461A
:100AC000FFF7C2FE002363630DE001232846B04711
:100AD0000246501CC9D12B68002BC6D01D2B01D05B
:100AE000162B1ED12F60002022E043F040031BB2E2
:100AF0001BE00F69002FF6D093070E6808BF4B6903
:100B00000F6018BF0023A6EB07088B60B8F1000F39
:100B1000E9DD216AA66A43463A462846B0470028DE
:100B200008DCB4F90C3043F04003A3814FF0FF30F0
:100B3000BDE8F0810744A8EB0008E7E7010040208A
:100B400038B50B6905460C4613B90025284638BD53
:100B500018B1036A0BB9FFF787FDB4F90C30002B0D
:100B6000F3D0626ED00704D4990502D4A06DFFF7CC
:100B700068FE28462146FFF75FFF636EDA070546E9
:100B8000E4D4A3899B05E1D4A06DFFF75BFEDDE70C
:100B900038B5064D0023044608462B6002F01EFAC5
:100BA000431C02D12B6803B1236038BDC80100206B
:100BB000164AD2F8883043F47003C2F888304FF0F8
:100BC000B0436FF482701A6842F001021A604FF469
:100BD000E0229A601968A2F1A26202440A401A60F7
:100BE000D3F8942022F00502C3F89420D3F898207B
:100BF00022F00102C3F89820054ADA601A611A68E7
:100C000022F480221A6000229A61704700ED00E011
:100C10000010042203689A69910744BF00229A6277
:100C20009A69D2075EBF9A6942F001029A617047E1
:100C300030B5039D04682B4343EA0243064A6068CB
:100C4000C1F309010B4342EA555223F0004320EA65
:100C500002000343636030BDFF63FF0303682DE9B7
:100C6000F0419C6914F0100405460F4616466FD0FB
:100C700010220024DA61A0462B689A69900661D49C
:100C8000B8F1000F35D044F0040401202E68B36998
:100C9000D90541BF4FF48072F26144F00104012094
:100CA0005A0541BF4FF4806244F00804F26101200C
:100CB0009B054FD54FF4007344F00204F3612846BE
:100CC000FFF7A8FF736823F0FF7323F48B3323F43B
:100CD000FF7323F0010373606B6C23436B64202369
:100CE00085F84130002385F8423085F840300120F6
:100CF00032E07A1CC1D001F0EBFC801BB84201D875
:100D0000002FB9D12B68596895F8422098690004E2
:100D1000D2B20AD5490408D4202A06D05A6842F42F
:100D200080425A6001F0D4FC06462B689B699B0602
:100D3000A2D401F0CDFC801B1928F6D920244FF055
:100D4000010899E7B8F1000F9DD12022DA619AE7F6
:100D500020469BE70028B2D1BDE8F08170B504467B
:100D60000D46164623689B699B0701D500201FE0AE
:100D7000324629462046FFF771FFC0B96A1CF1D000
:100D800001F0A6FC801BA84201D8002DEAD12368FF
:100D90009B6913F00203E5D1626C84F8403042F0A5
:100DA00020026264202284F8412084F8423001202D
:100DB00070BD2DE9F041DDF8188004460F46164657
:100DC0001D4623689B6937EA03030CBF01230023F8
:100DD000B34201D0002025E0424629462046FFF7D5
:100DE0003DFFF0B96B1CECD001F072FCA0EB0800E9
:100DF000A84201D8002DE4D123689B6937EA030398
:100E00000CBF01230023B342DBD1636C43F020030A
:100E10006364202384F84130002384F8423084F84E
:100E200040300120BDE8F08170B504460D461646FD
:100E300023689B699B0601D500201DE032462946A8
:100E40002046FFF70BFFB0B901F042FC801BA8421F
:100E500001D8002DECD123689B6913F02003E7D162
:100E6000626C84F8403042F020026264202284F8F0
:100E7000412084F84230012070BD00002DE9F84384
:100E8000DFF8989005460E46174600244FF01008EC
:100E90002B689B695B0700D414B12046BDE8F8833A
:100EA0003A4631462846FFF7D9FE2B689A69044630
:100EB00090060CD4003C18BF012401F009FCC01BB3
:100EC000B04201D8002EE3D1D4B10124E0E79CB9AF
:100ED0009A699A69D10611D504222021C3F81C8091
:100EE0006A64D9615A6802EA09025A6085F84110B9
:100EF00085F8404085F842400124DEE76C64DCE779
:100F00002B689B695A07C3D46B6C85F8404043F04B
:100F100020036B64202385F84130D6E700E800FE0B
:100F200010B5044600284ED090F8413003F0FF027F
:100F30001BB980F8402002F00DF8242384F84130DA
:100F400023681A6822F001021A60626822F0706257
:100F50001A619A6822F400429A60D4E902210129B8
:100F600006D142F400429A605A6822F4006207E017
:100F700042F4044202299A60F6D15A6842F40062AF
:100F80005A605A6842F0007242F400425A60DA68CD
:100F900022F40042DA60D4E904210A43A16942EA5A
:100FA0000122DA60D4E907210A431A601A6842F084
:100FB00001021A6000202023606484F8413020631D
:100FC00084F8420010BD0120FCE700002DE9F34742
:100FD000994690F841300A9F202B04460E469046D1
:100FE00040F09E8090F84030012B00F099804FF047
:100FF000010A80F840A001F06BFB19230546009020
:1010000052464FF400412046FFF7D3FE18B10120AD
:1010100002B0BDE8F087212384F84130102384F822
:1010200042306064A4F82A90638DC4F824809BB297
:10103000FF2B606316D9FF2222854FF0807C41464A
:10104000236811F8010B98626162618D013989B2E0
:10105000013A618592B2334922856346013200919B
:10106000D2B20AE0628D92B2228512B14FF0007CBA
:10107000E5E72C4B00934FF0007331462046FFF715
:10108000D7FD638D9BB22A4639462046BBB9FFF790
:10109000CBFE0028BBD123682021D9615A6822F0F9
:1010A000FF7222F48B3222F4FF7222F001025A60A6
:1010B00084F8411084F8400084F84200A8E7FFF764
:1010C0004DFE0028A3D1636A226813F8011B9162C8
:1010D0006362638D228D013B9BB26385638D013A10
:1010E00092B29BB22285002BCBD0002AC9D10095A9
:1010F0003B4680212046FFF75CFE002887D1638DA8
:101100009BB2FF2B05D9FF2222854FF08073009000
:10111000B3E7628D92B222854FF0007300909FE793
:10112000022075E7002000802DE9F347984690F8EB
:1011300041300A9F202B04460E46914640F087809E
:1011400090F84030012B00F082804FF0010A80F8C7
:1011500040A001F0BDFA19230546009052464FF415
:1011600000412046FFF725FE18B1012002B0BDE87E
:10117000F087222384F84130102384F842306064E1
:10118000A4F82A80638DC4F824909BB2FF2B60637F
:10119000304B26D9FF22228500934FF080733146D1
:1011A0002046FFF745FD638D9BB22A46394620460F
:1011B000FBB9FFF739FE0028D7D123682021D96178
:1011C0005A6822F0FF7222F48B3222F4FF7222F06E
:1011D00001025A6084F8411084F8400084F842000B
:1011E000C4E7628D92B2228500934FF00073D2B2B1
:1011F000D5E7FFF743FE0028B7D123685A6A636A30
:101200001A70636A228D01336362638D013B9BB266
:101210006385638D013A92B29BB22285002BC2D0C6
:10122000002AC0D100953B4680212046FFF7C1FD32
:1012300000289AD1638D9BB2FF2B03D9FF22228510
:101240000090AAE7628D92B222850090CDE702203D
:101250008CE700BF002400802DE9F74F994690F8F5
:101260004130BDF834A0DDF83880202B04460F460D
:10127000164640F0C6800C9B13B1BAF1000F06D1A0
:101280004FF400736364012003B0BDE8F08F90F861
:101290004030012B00F0B5804FF0010B80F840B0DA
:1012A00001F016FA1923054600905A464FF4004102
:1012B0002046FFF77EFD0028E5D1212384F8413048
:1012C000402384F842300C9B63624F4B6064606340
:1012D000A4F82AA05FFA89F20093394620464FF01D
:1012E0008073FFF7A5FC2A4641462046FFF736FDEE
:1012F00018BBB9F1010F236815D1F6B29E62002226
:101300000095434680212046FFF753FDA8B9638D21
:101310009BB2FF2B15D8628D92B222854FF00073DD
:101320000090D2B212E0320A9A6241462A46204622
:10133000FFF714FD08B92368DFE7002384F8403085
:10134000A1E7FF2222854FF08073009039462046A6
:10135000FFF76EFC2A4641462046FFF7FFFC0028B7
:1013600091D1636A226813F8011B91626362638DF5
:10137000228D013B9BB26385638D013A92B29BB291
:101380002285B3B1AAB90095434680212046FFF7D4
:1013900010FD00287FF477AF638D9BB2FF2B28D917
:1013A000FF2222854FF08073009039462046FFF7D8
:1013B0003FFC638D9BB2002BCCD12A464146204690
:1013C000FFF732FD00287FF45EAF23682021D9614A
:1013D0005A6822F0FF7222F48B3222F4FF7222F05C
:1013E00001025A6084F8411084F8400084F84200F9
:1013F0004AE7628D92B222854FF000730090D2B21C
:10140000D3E7022040E700BF002000802DE9F74F1E
:10141000994690F84130BDF834A0DDF83880202B93
:1014200004460F46164640F0C9800C9B13B1BAF132
:10143000000F06D14FF400736364012003B0BDE8D0
:10144000F08F90F84030012B00F0B8804FF0010B86
:1014500080F840B001F03CF91923009005465A4647
:101460004FF400412046FFF7A4FC03460028E4D1D6
:10147000222284F84120402284F842200C9A6262A1
:101480004F4A60646063A4F82AA03946009220465F
:101490005FFA89F2FFF7CCFB2A4641462046FFF768
:1014A0005DFC20BBB9F1010F236816D1F6B29E6234
:1014B00000220095434640212046FFF77AFCB0B950
:1014C000638D9BB2FF2B3F4B15D8628D92B2228564
:1014D0000093D2B24FF0007312E0320A9A62414692
:1014E0002A462046FFF73AFC08B92368DEE70023C6
:1014F00084F84030A1E7FF22228500934FF08073EB
:1015000039462046FFF794FB00954346002204210C
:101510002046FFF74EFC00288FD123685A6A636A81
:101520001A70636A228D01336362638D013B9BB243
:101530006385638D013A92B29BB22285B3B1AAB999
:101540000095434680212046FFF733FC00287FF4B6
:1015500074AF638D9BB2FF2B28D9FF2222854FF0F9
:101560008073009039462046FFF762FB638D9BB283
:10157000002BC9D12A4641462046FFF755FC0028DA
:101580007FF45BAF23682021D9615A6822F0FF7293
:1015900022F48B3222F4FF7222F001025A6084F8A6
:1015A000411084F8400084F8420047E7628D92B20F
:1015B00022854FF000730090D2B2D3E702203DE7BE
:1015C000002000800024008010B590F84120202ADF
:1015D0000346D4B21CD190F84020012A18D024220E
:1015E00080F841200268106820F001001060106847
:1015F00020F48050106010680143116011680020D1
:1016000041F00101116083F8414083F8400010BDB2
:101610000220FCE710B590F84120202A0346D4B2FE
:101620001BD190F84020012A17D0242280F84120B5
:101630000268106820F001001060106820F47060EB
:1016400040EA012111601168002041F001011160A0
:1016500083F8414083F8400010BD0220FCE74FF0C2
:10166000B043D3F89400C0F3400070474FF0B0434C
:101670001868C0F3400070474FF0B042136823F081
:10168000F0030343136070474FF0B042536823F4F4
:101690007F4343EA0023536070470000B028334B78
:1016A000334A98BF0009F0B58CBFDD6A53F820506B
:1016B000304C4FF0B04389B0D3F8083103F00F033A
:1016C0006E4652F82330B5FBF3F500F059FF07469C
:1016D00094E80F00103486E80F0094E80F00B7F587
:1016E000007F08AC04E90F0020D0234B9D422FD38C
:1016F00003F5B70303F67F539D422BD903F574130B
:1017000003F510639D4227D900241C4D2B6823F05C
:10171000070323432B6000F0DBFF06462B6803F032
:1017200007039C421AD1002009B0F0BD144BB5FB51
:10173000F3F5002356F8042B954205D808AA02EBCE
:10174000830353F8104CE0E70133042BF2D1DBE7BD
:101750000023F3E70123F1E70223EFE700F0B8FFEE
:10176000801B0228DAD90320DEE700BF883B00088F
:10177000E83B0008683B0008C0CF6A000040005802
:1017800040420F004FF0B0439A6812F00C020AD1A9
:101790001B68224A03F0F003B02B28BFB0231B09BB
:1017A00052F823007047042A35D0082A07D11B6855
:1017B0001B4813F4801F1B4B08BF18467047DA689C
:1017C00002F00302022A24D0032A1B6817D113F463
:1017D000801F144B124908BF19464FF0B043D86818
:1017E000DA68DB68C0F30620C2F302125B0F4843DD
:1017F00001320133B0FBF2F0B0FBF3F0704703F0BD
:10180000F003B02B28BFB023044A1B0952F8231061
:10181000E3E70349E1E70248704700BF883B00085F
:101820000024F4000048E80108B5FFF7ABFF4FF0D3
:10183000B043044A9B68C3F3031352F82330B0FB50
:10184000F3F008BDE83B0008F8B50446002800F0B6
:101850009B8003689E0632D54FF0B042C169936801
:10186000D26813F00C0307D00C2B40F08F8002F0ED
:101870000303012B40F08A80002900F085804FF09F
:10188000B043616A1B6803F0F003B02B28BFB0239C
:10189000994208466ED9FFF701FF002874D1606AAB
:1018A000FFF7EAFE206AFFF7EFFEFFF7BDFFB24B3E
:1018B0001860B24B186800F0C3FE002864D123689A
:1018C000DD0711D54FF0B0429368D168626803F02C
:1018D0000C03082B06D00C2B40F0848001F003038E
:1018E000032B7FD1002A4FD023689A071BD54FF0D6
:1018F000B042E1689368D26803F00C03042B07D070
:101900000C2B40F0998002F00303022B40F09480EE
:10191000002939D04FF0B0422169536823F0FE43CB
:1019200043EA01635360236813F0180F40F0AF805F
:101930002368580700F14B812368580640F1B081B5
:10194000A36A4FF0B045002B00F09781D5F898308E
:1019500043F00103C5F8983000F0BAFE0646D5F80A
:101960009830990700F19C8100F0B2FE831B022B96
:10197000F5D924E0FFF780FE206AFFF785FE0846D0
:10198000FFF78CFE002890D0012019E04FF0B04303
:101990001A68B1B142F001021A6000F099FE0546E2
:1019A000FFF764FE30B1606AFFF766FE206AFFF75A
:1019B0006BFE84E700F08CFE401B0228F0D9032068
:1019C000F8BD22F001021A6000F082FE0546FFF722
:1019D0004DFE00283FF473AF00F07AFE401B022852
:1019E000F5D9ECE74FF0B045B2F5803F2B6811D147
:1019F00043F480332B6000F06BFE4FF0B046054699
:101A0000336898033FF570AF00F062FE431B642B10
:101A1000F6D9D4E723F480332B60002AEBD100F011
:101A200057FE06462B6899037FF55EAF00F050FE27
:101A3000831B642BF6D9C2E74FF0B0452B68B1B1D8
:101A400043F480732B6000F043FE06462B685B0571
:101A500005D400F03DFE831B022BF7D9AFE76B687E
:101A6000226923F0FE4343EA02636B605BE723F4E1
:101A700080732B6000F02CFE06462B685F057FF517
:101A800052AF00F025FE831B022BF6D997E762695F
:101A90004FF0B045002A73D0D90647D5FFF7DFFDD8
:101AA000A0B14FF0B045D5F8943043F00403C5F829
:101AB000943000F00DFE0646D5F894301A0718D47D
:101AC00000F006FE831B032BF6D978E7D5F8943097
:101AD00043F00103C5F8943000F0FAFD0546FFF726
:101AE000BEFD0028DDD100F0F3FD401B0228F6D931
:101AF00065E7D5F89430A26923F4706343EA0223C2
:101B0000C5F89430D5F8943023F00103C5F894302B
:101B100000F0DEFD0546FFF7A2FD00283FF408AF08
:101B200000F0D6FD401B0228F5D948E7D5F89430DF
:101B300043F00103C5F8943000F0CAFD0546FFF7F5
:101B40008EFD90B14FF0B046D6F8943023F00403E8
:101B5000C6F89430D6F894301B077FF5E9AE00F054
:101B6000B7FD401B0328F5D929E700F0B1FD401B64
:101B70000228E4D923E700BF640000206C000020A5
:101B8000D5F8943023F00403C5F8943000F0A0FD9C
:101B90000646D5F894301F0713D4D5F8943023F0B7
:101BA0000103C5F8943000F093FD0546FFF757FD9B
:101BB00000283FF4BDAE00F08BFD401B0228F5D994
:101BC000FDE600F085FD831B032BE2D9F7E6814E8D
:101BD0003368D8051CD5A368012B4FF0B04525D13B
:101BE000D5F8903043F00103C5F8903000F070FD57
:101BF0004FF0B047054641F28836D7F890309A0743
:101C00003FF59AAE00F064FD431BB342F5D9D6E62A
:101C100000F0AEFC00F05CFD05463368D905DAD46F
:101C200000F056FD401B0228F7D9C8E6052B06D167
:101C3000D5F8903043F00403C5F89030D0E7D5F8DC
:101C4000902022F00102C5F89020D5F8902022F0D3
:101C50000402C5F89020002BC8D100F039FD41F2F4
:101C600088370646D5F890309B077FF565AE00F0C3
:101C70002FFD831BBB42F5D9A1E6D5F8983023F0A0
:101C80000103C5F8983000F023FD0646D5F89830DA
:101C90009A0705D500F01CFD831B022BF6D98EE6B2
:101CA000E16A09B900208BE64FF0B0450229AA6825
:101CB000EB6802F00C0274D1206B03F00301814247
:101CC00018D1606B03F07001814213D1A06BC3F394
:101CD000062181420ED1E06B03F47811814209D1D3
:101CE000206C03F06061814204D1616C03F06043B9
:101CF0008B423FD00C2A3FF447AE4FF0B0452B68E3
:101D00005B013FF541AE2B6823F080732B6000F040
:101D1000DFFC06462B689F0126D4D4E90C32E96823
:101D200013432D4A0A401343E26B1343226C1343BF
:101D3000626C1343A26B43EA0223EB602B6843F00F
:101D400080732B60EB6843F08053EB6000F0C0FCC5
:101D50004FF0B04504462B689801A3D400F0B8FCBE
:101D6000001B0228F7D92AE600F0B2FC801B0228EB
:101D7000D0D924E62B68990194D42B6843F0807362
:101D80002B60EB6843F08053EB6000F0A1FC04464D
:101D90002B689A0186D400F09BFC001B0228F7D91F
:101DA0000DE60C2A3FF4F0AD2B6823F080732B6016
:101DB00000F08EFC04462B689B0104D4EA68074BB4
:101DC0001340EB606EE700F083FC001B0228F2D9A1
:101DD000F5E500BF000400588C80C111FCFFFEEE49
:101DE0002DE9F0410D46044610B90120BDE8F0810F
:101DF000784E336803F007038B4216D323689A07A3
:101E000027D54FF0B047A268BB6823F0F003134317
:101E1000BB6000F05DFC0646BB68DB0319D400F034
:101E200057FC831B022BF7D911E0336823F007031B
:101E30000B43336000F04CFC0746336803F00703A4
:101E4000AB42DBD000F044FCC01B0228F5D90320D4
:101E5000CCE72368980616D54FF0B0476269D7F8EB
:101E6000083123F0F0031343C7F8083100F030FCC9
:101E70000646D7F80831990305D400F029FC831BE6
:101E8000022BF6D9E3E723685A0617D54FF0B0477F
:101E9000A269D7F8083123F00F0343EA1213C7F8F9
:101EA000083100F015FC0646D7F80831DB0305D4ED
:101EB00000F00EFC831B022BF6D9C8E723685E07EF
:101EC00013D54FF0B047E268BB6823F4E0631343D7
:101ED000BB6000F0FDFB0646BB68980305D400F02C
:101EE000F7FB831B022BF7D9B1E72368190714D539
:101EF0004FF0B0472269BB6823F4605343EAC20342
:101F0000BB6000F0E5FB0646BB685A0305D400F051
:101F1000DFFB831B022BF7D999E72368DB070FD47C
:101F20002C4C236803F00703AB4240D8FFF77CFC3E
:101F3000294B186000F0D2FBBDE8F04100F080BBF7
:101F40006268022A1FD14FF0B0431B6813F4003FB0
:101F50003FF44BAF4FF0B04641F28838B36823F0FE
:101F600003031343B36000F0B3FB0746B368626832
:101F700003F00C03B3EB820FD2D000F0A9FBC01B1F
:101F80004045F3D963E7032A05D14FF0B0431B68FE
:101F900013F0007FDCE722B9FFF768FB0028D9D1F6
:101FA00023E74FF0B0431B6813F4806FD0E723683A
:101FB00023F007032B43236000F08AFB06462368C7
:101FC00003F00703AB42B1D000F082FB801B022874
:101FD000F5D93CE7004000586400002008B5FFF741
:101FE00023FC4FF0B043054A9B68C3F3022352F829
:101FF000233003F01F03D84008BD00BFC83B0008D2
:1020000008B5FFF711FC4FF0B043054A9B68C3F3D6
:10201000C22352F8233003F01F03D84008BD00BF8D
:10202000C83B00084FF0B043D3F89000C0F3400025
:1020300070474FF0B0410209D1F8883002F47F2296
:10204000000123EA020300F47F200343C1F8883033
:1020500070474FF0B042136843F0806313607047DD
:102060004FF0B042136823F08063136070474FF065
:10207000B0431868C0F3C0607047F8B503685D06E8
:10208000044640F1D080036BB3F5800F00F0CD80A3
:1020900000F2B980002B00F0CF80012623681805DC
:1020A00015D54FF0B045236CD5F8907007F4407704
:1020B000BB420CD000F05CFAD5F89030002F40F015
:1020C000EF80226C23F440731343C5F890302568E9
:1020D000EA0709D54FF0B042A169D2F8883023F061
:1020E00003030B43C2F88830AB0709D54FF0B04269
:1020F000E169D2F8883023F440630B43C2F888309A
:10210000EF060CD5A16A4FF0B042080CD2F8883027
:10211000000423EA000343EA0143C2F88830A8061A
:102120000CD5E16A4FF0B042080CD2F888300004B8
:1021300023EA000343EA0143C2F88830690702D565
:10214000206AFFF776FF2A0702D5606AFFF771FF62
:10215000EB0511D54FF0B042616BD2F8883023F017
:1021600040630B43B1F1006FC2F8883040F0C0808B
:10217000D36843F08073D3602568AF0510D5A26B98
:1021800032F080434FF0B043D3F8881021F0404143
:1021900003D0B2F1004F40F0E3800A43C3F8882037
:1021A000680511D54FF0B042E16BD2F8883023F0CA
:1021B00040530B43B1F1005FC2F8883040F0E38038
:1021C000D36843F48033D3602268D10409D54FF03B
:1021D000B041606CD1F8943023F440430343C1F81C
:1021E000943093040DD54FF0B042E16C536A23F064
:1021F00030030B435362536AA16C23F003030B4378
:1022000053623046F8BD23F48003B3F5000F7FF42A
:1022100044AF4FF0B042216BD2F8883023F4400332
:102220000B43C2F88830002638E74FF0B042D3683D
:1022300043F48033D360ECE7FFF712FF00F048FA75
:102240000546FFF714FFA0B94FF0B042616813696B
:1022500023F4FE4343EA012313611369A16823F4C5
:1022600078130B431361FFF7F4FE00F031FA0546D3
:102270000BE000F02DFA401B0228E2D903260DE7FF
:1022800000F026FA401B0228F8D8FFF7F0FE0128DC
:10229000F6D14FF0B042616913690B431361B8E79F
:1022A000D5F8902042F48032C5F89020D5F89020DF
:1022B00022F48032C5F89020226C23F4407313433B
:1022C000C5F89030D5F89030D9077FF500AF00F011
:1022D000FFF941F288370546FFF7A4FE01283FF4D5
:1022E000F6AE00F0F5F9401BB842F5D90326EEE64C
:1022F000B1F1806F7FF440AFFFF7B2FE00F0E8F974
:102300000546FFF7B4FEA0B94FF0B042616813690B
:1023100023F4FE4343EA012313611369E16823F0C8
:1023200060630B431361FFF794FE00F0D1F905469B
:102330000BE000F0CDF9401B0228E2D903261BE791
:1023400000F0C6F9401B0228F8D8FFF790FE0128DC
:10235000F6D14FF0B042616913690B4313610BE78B
:10236000C3F88810D3F8880022F0805120F0406034
:102370000143B2F1C05FC3F8881002BFDA6842F0CF
:102380008072DA600CE7B1F1805F7FF41DAFFFF778
:1023900067FE00F09DF90546FFF769FEA0B94FF012
:1023A000B0426168136923F4FE4343EA01231361D9
:1023B0001369216923F060430B431361FFF749FE62
:1023C00000F086F905460BE000F082F9401B022878
:1023D000E2D90326F8E600F07BF9401B0228F8D882
:1023E000FFF745FE0128F6D14FF0B042616913694D
:1023F0000B431361E8E600002DE9F04F574C002332
:102400004FF00F090A6832FA03F501D1BDE8F08FE9
:10241000012505FA03F818EA020200F094804E68DC
:10242000032706F003054FEA430E07FA0EFC6F1E62
:10243000012F6FEA0C0C32D8876807EA0C0ACF68C4
:1024400007FA0EF747EA0A078760476827EA08088D
:10245000C6F300179F4047EA08074760C76807EAC6
:102460000C088F6807FA0EF747EA0807022DC760C5
:1024700017D14FEAD30800EB880803F0070AD8F811
:1024800020704FEA8A0A09FA0AFB27EA0B0B0F6948
:1024900007FA0AF747EA0B07C8F8207001E0032D96
:1024A000DCD1076805FA0EF507EA0C073D4316F480
:1024B000403F056047D023F0030707F1804707F549
:1024C000803703F0030EBD684FEA8E0E09FA0EFC4A
:1024D000B0F1904F25EA0C0C37D0214DA84236D0F0
:1024E00005F58065A84234D005F58065A84232D054
:1024F00005F58065A84214BF0725042505FA0EF5E9
:1025000045EA0C05BD602568D74316F4801F0CBF53
:102510003D4015432560656816F4001F0CBF3D4023
:1025200015436560D4F8805016F4803F0CBF3D40E1
:102530001543C4F88050D4F88450B60354BF3D40CE
:102540001543C4F8845001335CE70025D6E7012524
:10255000D4E70225D2E70325D0E700BF00080058E2
:10256000000400480AB18161704781627047000031
:10257000024A136843F480731360704700040058E4
:10258000024B186800F4C060704700BF0004005898
:102590000749CA6822F4E0620302120403F4E0630C
:1025A000120C134343F0BF6343F40033CB60704716
:1025B00000ED00E0164B30B5DC68C4F30224C4F132
:1025C0000703251D042B28BF0423062D4FF0FF35DC
:1025D0008CBF033C002405FA03F321EA0303A54062
:1025E00022EA0502A340002843EA0203ACBF00F13F
:1025F0006040084A4FEA0313B8BF00F00F00DBB297
:10260000AABF00F56140135480F8003330BD00BF0D
:1026100000ED00E014ED00E00138B0F1807F0BD256
:102620004FF0E023054A5861F02182F82310002082
:10263000072298611A6170470120704700ED00E0A1
:1026400038B5104C237805460BB9012038BDFFF78B
:10265000EBF822784FF47A73B3FBF2F3B0FBF3F0AC
:10266000FFF7DAFF04460028EFD10F2DEDD8024620
:1026700029464FF0FF30FFF79DFF034B20461D60BA
:10268000E4E700BF680000206C000020094A1368DE
:1026900043F4807310B503201360FFF779FF002027
:1026A000FFF7CEFF044618B900F052FC204610BDDB
:1026B0000124FBE700400058034A044B11681B78D3
:1026C0000B441360704700BFD80100206800002051
:1026D000014B1868704700BFD8010020014B1868F3
:1026E000704700BF6C00002038B50446FFF7F0FFCC
:1026F000631C1CBF054B1B78054618BFE418FFF789
:10270000E7FF431BA342FAD338BD00BF6800002097
:1027100010B5026852E8003F23F4907342E800319C
:1027200002680029F5D10F4C02F1080353E8003F7D
:10273000234002F1080C4CE800310029F4D1C36EAB
:10274000012B07D152E8003F23F0100342E800318B
:102750000029F7D12023C0F88C300023C3664367DB
:1027600010BD00BFFEFFFFEF7047000038B5044604
:10277000C0692169A26823680A4361691D680A4328
:102780006249024329400A431A605A68E16822F408
:1027900040520A435A605E4AA16993421CBF226AB2
:1027A00011439A6822F06E4222F430620A439A6022
:1027B000DA6A616A22F00F020A43DA62554A9342EA
:1027C0002FD14FF0B043D3F8883003F00303022B2E
:1027D00000F09780032B00F08D80012B00F08480A7
:1027E000B0F5004F7DD1FFF70BFC58B361684A4B41
:1027F000626A33F81220B0FBF2F24B0803EB42039B
:102800004FF6EF72B3FBF1F3A3F11001914224D81C
:1028100023F00F02216892B2C3F342031343CB604B
:1028200010E03B4A934218D14FF0B043D3F88830C0
:1028300003F44063B3F5006F14D00BD87BB9FFF7F6
:10284000CDFB80B900204FF00113A3660023C4E93B
:102850001D3338BDB3F5406F2CD00120F3E7FEF7F0
:1028600091FFEEE72D4865682B4B626A05EB450149
:1028700033F81220B0FBF2F39942EED8B3EB053FE8
:10288000EBD800231946FDF77BFC090241EA1061F1
:102890006B080002C0182A464FF0000341F1000106
:1028A000FDF76EFC1E4BA0F540729A42D5D8236806
:1028B000D860C7E74FF40040D5E7FEF763FF002874
:1028C000C0D06368616A144A32F81120B0FBF2F09C
:1028D00000EB5300B0FBF3F04FF6EF73A0F11002E2
:1028E000E3E7FFF78DFBEAE7B0F5004FE5D1FEF730
:1028F00049FF7AE7B0F5004F3FF478AF4FF400405E
:10290000DFE7B0F5004F0548DBD16FE7F369FFCF94
:102910000080004000380140283C00080024F400FA
:10292000FFFC0F00836A1A0710B506D50168846B97
:102930004A6822F4004222434A60DC0706D5016857
:10294000C46A4A6822F4003222434A60990706D5D5
:102950000168046B4A6822F4803222434A605A07B5
:1029600006D50168446B4A6822F4802222434A60FB
:10297000DC0606D50168C46B8A6822F480522243C3
:102980008A60990606D50168046C8A6822F40052B0
:1029900022438A605A060FD50168446C4A6822F4C3
:1029A00080122243B4F5801F4A6005D14A68846CC6
:1029B00022F4C00222434A601B0606D50268C16C9D
:1029C000536823F400230B43536010BD2DE9F843F3
:1029D000DDF8209004460D46174698462268D369D4
:1029E00035EA03030CBF01230023BB4201D00020C2
:1029F00022E0B9F1FF3FF2D0FFF76AFEA0EB08003A
:102A0000484529D8B9F1000F26D021680B685A072C
:102A1000E4D5802DE2D0402DE0D0CE6916F0080636
:102A20000CD0082520460D62FFF772FE0023C4F883
:102A3000905084F884300120BDE8F883CB691B05F1
:102A4000CCD54FF400630B622046FFF761FE2023D4
:102A5000C4F8903084F884600320EDE72DE9F74353
:102A60009846D0F88830202B04460E46174646D1AB
:102A7000002946D0002A44D021230025C0F89050D8
:102A8000C0F88830FFF724FEA368A4F85470B3F5AB
:102A9000805F8146A4F8567003D123690BB935468F
:102AA0001E46B4F85620CDF8008092B24B4642B98B
:102AB00040212046FFF78AFF202348B9C4F8883018
:102AC00009E0002280212046FFF780FF30B120235B
:102AD000C4F88830032003B0BDE8F08322685EB9F3
:102AE00035F8023BC3F308039362B4F85620013A69
:102AF00092B2A4F85620D4E716F8013BF4E702207E
:102B0000E9E70120E7E773B504460026C0F89060C6
:102B1000FFF7DEFD23681B681A0705461CD56FF01A
:102B20007E430093324603464FF400112046FFF7E0
:102B30004DFF88B1226852E8003F23F0800342E84D
:102B400000310029F6D12023C4F888300320002367
:102B500084F8843002B070BD23681B685B0724D5FD
:102B60006FF07E43009300222B464FF480012046F5
:102B7000FFF72CFFC8B1226852E8003F23F490739E
:102B800042E8003122680029F5D102F1080353E838
:102B9000003F23F0010302F1080040E80031002962
:102BA000F3D12023C4F88C30D0E720230020C4F8D0
:102BB0008830C4F88C30E0662067C8E710B504465A
:102BC00050B3D0F888301BB980F88430FFF7CCFDC3
:102BD00022682423C4F88830136823F001031360AB
:102BE000A36A13B12046FFF79DFE2046FFF7BEFD06
:102BF000012811D023685A6822F490425A609A68DA
:102C000022F02A029A601A6842F0010220461A60F5
:102C1000BDE81040FFF777BF012010BD4FF0B04373
:102C200082B0DA6C0243DA64DB6C03400193019BEF
:102C300002B07047094A02600A6842600C22426191
:102C40004A8902614A6882600A89C2608A8982610F
:102C50004FF40042C261FFF7B1BF00BF003801402E
:102C6000F0B5012887B004460E4633D80220FFF79E
:102C7000D5FFFFF7D3FF4FF0B04305461A6E42F47D
:102C800080421A661B6E029003F480430093009BFF
:102C900004904023114801930727012301A90393BE
:102CA0000597FFF7A9FB80230C48059701A9CDE9FB
:102CB00001356442FFF7A0FB094804F09404314653
:102CC0002044FFF7B7FF002814BF6FF00300002077
:102CD00007B0F0BD6FF00100FAE700BF0004004844
:102CE000E001002037B5084B0190084C1878942576
:102CF0004FF47A73012201A905FB0040FFF7AEFEF5
:102D0000019803B030BD00BFDC010020E0010020CD
:102D10004FF0B04382B0DA6C0243DA64DB6C0340FC
:102D20000193019B02B0704710B59AB04422002174
:102D300009A8FDF712FD1C22002101A8FDF70DFDD9
:102D4000184A136823F4C06343F4007313601368D4
:102D500003F4C0630093009B222308934FF4807315
:102D60000B93402301240C93A022002308A8CDE953
:102D700010320F941393FEF767FD08B172B6FEE7A9
:102D80006F23CDE90130CDE90300CDE905000790BF
:102D9000214601A8FFF724F808B172B6FEE71AB081
:102DA00010BD00BF0004005800B595B04C220021B2
:102DB00001A8FDF7D2FC4FF4005368460093FFF7DB
:102DC0005CF908B172B6FEE715B05DF804FB0000CF
:102DD00070B588B0FFF75AFCFFF7A6FFFFF7E4FFD6
:102DE0001422002103A8FDF7B8FC0420FFF790FF90
:102DF0000220FFF78DFF0120FFF78AFF0820FFF771
:102E000087FF232100223E483E4D0024FFF7AAFB06
:102E100010233D48059403A9CDE903340126FFF7AB
:102E2000EBFA2323364803A9CDE90336CDE905445F
:102E3000FFF7E2FA4FF4C0520223CDE9032303A9BE
:102E40000A234FF090400793CDE90544FFF7D4FAE9
:102E500003232E48059403A9CDE90334FFF7CCFAE8
:102E60002B492C4B2C622846C5E90013C5E90246C4
:102E7000C5E90444C5E90644FEF752F8014608B125
:102E800072B6FEE72846FEF79FFB014608B172B610
:102E9000FEE72846FEF7BEFB08B172B6FEE71E4904
:102EA0004FF4E132C1E9002088608881FFF7D8FE45
:102EB00008B172B6FEE7284600F022F9174B1870E9
:102EC00018B9174800F048FAFEE71648164D174C97
:102ED000174E00F041FA132000F035F9154B2B6026
:102EE0002B68124898476368009323786278A1782A
:102EF000304600F0C9F94FF47A70FFF7F5FBEFE7C1
:102F0000000400487402002000080048000C00483B
:102F1000005C00402F116000C8020020D802002091
:102F2000403C0008643C0008FC020020DC02002059
:102F30007A3C00080132000872B6FEE7FEE7FEE7C1
:102F4000FEE7FEE7FEE7704770477047FFF7B4BB48
:102F50007047000010B59CB004461422002103A85D
:102F6000FDF7FBFB5022002108A8FDF7F6FB2268C5
:102F7000184B9A422BD10823089308A84FF440130A
:102F80001193FFF77AF808B1FFF7D6FF4FF0B0447E
:102F90000322E36C104843F00403E364E36C03F0A2
:102FA00004030293029B1223CDE903230023CDE9FE
:102FB000053303A904230793FFF71EFAA36D43F417
:102FC0000003A365A36D03F400030193019B1CB0F0
:102FD00010BD00BF005C0040000800480B4A1168AB
:102FE00010B5034609B90A491160106809490A4C2D
:102FF0000344091B8B4206D900F04AFA0C230360F4
:103000004FF0FF3010BD1360FCE700BFEC02002062
:1030100018030020000003200004000070B50D46D6
:1030200014460E46731B9C4201DC204670BDAFF374
:10303000008006F8010BF5E770B50D4614460E4604
:10304000731B9C4201DC204670BD16F8010BFFF794
:1030500049FEF5E74FF0FF3070474FF400534B60E7
:10306000002070470120704700207047D458C4509A
:103070000433C4188C42F9D370470360043088428B
:10308000FBD370470C488546FDF792FD0B480C4971
:103090000C4A0023FFF7EDFF0B480C490C4A0023B4
:1030A000FFF7E7FF0B480C490023FFF7E8FFFDF7A8
:1030B000A3FBFFF78DFEFEE70000032008000020C1
:1030C00070000020283D00080000032000000320BD
:1030D000903D00087000002014030020FEE71FB59B
:1030E000012300934468006800220DF10F03D021F2
:1030F0008DF80F20A047003818BF012004B010BD84
:10310000074B08495960084999600849D96008493E
:103110001860196110B11846FFF7E1BF704700BF92
:10312000000300201F3200083D3200087132000801
:103130005B320008030903EB830300F00F0000EB90
:103140004300C0B270470A22B0FBF2F302FB130047
:1031500000EB0310C0B2704730B50B4C85B0256949
:103160008DF807000DF1070220680123D021A84740
:10317000E568206801230DF10F02D021A8479DF8D2
:103180000F0005B030BD00BF0003002008B50020CF
:10319000FFF7E2FFBDE80840FFF7CCBF08B501200C
:1031A000FFF7DAFFBDE80840FFF7C4BF08B502200B
:1031B000FFF7D2FFBDE80840FFF7BCBF08B503200A
:1031C000FFF7CAFFBDE80840FFF7B4BF0138C0B23F
:1031D000062803D8024B53F820007047704700BF01
:1031E000FC3C000808B5FFF7E9FFFFF7EFFF034BD2
:1031F0000146184600F052F908BD00BFF002002059
:1032000010B50446FFF7C2FF2070FFF7C7FF6070DC
:10321000FFF7CCFFA070FFF7E5FF606010BD1FB5A2
:1032200064240294BDF81840CDE900340123FEF770
:10323000EDF8B0FA80F0400904B010BD1FB5642469
:103240000294BDF81840CDE900340123FEF704F8DC
:10325000B0FA80F0400904B010BD13B54FF0FF3450
:103260000094FDF7B3FEB0FA80F0400902B010BD43
:1032700013B54FF0FF340094FDF756FFB0FA80F01D
:10328000400902B010BD00000FB407B5064904ABF9
:10329000086853F8042B8168019300F031F903B0FA
:1032A0005DF804EB04B0704714000020036A70B5A9
:1032B000846805460E460BB9FDF7D6F9636EDB0749
:1032C00005D4A389980502D4A06DFDF7BAFAA389A5
:1032D000190702D52369002B35D12146284600F075
:1032E00081F880B34FF0FF35636EDA0705D4A38908
:1032F0009B0502D4A06DFDF7A5FA284670BD002BF2
:1033000004DAA2699A4217DC0A2915D023685A1CEC
:1033100022601970A36816F8011F013BA360002901
:10332000EDD1002B11DA22460A21284600F01CF8C4
:103330000130D7D00A25D7E72246284600F014F8F6
:103340000130E7D1CEE7013EE4E723685A1C226052
:103350000A221A70EEE70000024B01461868FFF7D8
:10336000A5BF00BF14000020F8B50E461446054660
:1033700018B1036A0BB9FDF777F9A369A360A389B4
:103380001A0701D5236943B92146284600F02AF8D7
:1033900018B14FF0FF373846F8BD23682269981AF4
:1033A0006369F6B28342374605DC21462846FDF7BD
:1033B000C7FB0028EDD1A368013BA36023685A1C1A
:1033C00022601E706269431C9A4204D0A389DB0705
:1033D000E1D50A2EDFD121462846FDF7B1FB0028B2
:1033E000D9D0D6E738B5294B054618680C4618B130
:1033F000036A0BB9FDF738F9B4F90C30190722D478
:10340000DA0607D409222A6043F04003A3814FF073
:10341000FF3033E0580712D5616B41B104F144032A
:10342000994202D02846FDF70FFA00236363A3896F
:1034300023F02403A3810023636023692360A3890D
:1034400043F00803A38123694BB9A38903F42073D4
:10345000B3F5007F03D02146284600F01BFBB4F9EA
:103460000C3013F001020AD00022A26062695242BD
:10347000A261226942B913F08000C5D138BD990715
:1034800058BF6269A260F4E70020F7E7140000204B
:10349000014B1868704700BF14000020034611F864
:1034A000012B03F8012B002AF9D170479368013BE7
:1034B000002B10B4936008DA9469A34201DB0A2957
:1034C00003D15DF8044BFFF74FBF1368581C106021
:1034D000197008465DF8044B7047F8B506460F466C
:1034E0001446D518AC4201D1002007E014F8011BA6
:1034F0003A463046FFF7DAFF431CF3D1F8BD00002F
:103500002DE9F04F0D469DB014469846064618B179
:10351000036A0BB9FDF7A8F86B6ED90705D4AB8920
:103520009A0502D4A86DFDF78CF9AB891B0701D56C
:103530002B699BB929463046FFF754FF70B16B6E7B
:10354000DC0704D54FF0FF301DB0BDE8F08FAB892C
:103550009805F7D4A86DFDF775F9F3E700230993F3
:1035600020238DF82930CDF80C803023DFF8AC8192
:103570008DF82A304FF0010923469A4613F8012BA3
:103580000AB1252AF9D1BAEB040B0BD05B462246CF
:1035900029463046FFF7A1FF013000F0A780099AC5
:1035A0005A4409929AF80030002B00F09F800023C3
:1035B0004FF0FF32CDE905230AF1010A0493079386
:1035C0008DF853301A935446052214F8011B5348C2
:1035D000FCF76EFF049AD8B9D10644BF20238DF8BA
:1035E0005330130744BF2B238DF853309AF8003023
:1035F0002A2B15D0079A544600204FF00A0C21467A
:1036000011F8013B303B092B4BD9B0B1079214E0C4
:10361000A0EB080309FA03F313430493A246D2E78D
:10362000039B191D1B680391002BBBBF5B4242F03B
:10363000020207930793B8BF049223782E2B0AD176
:1036400063782A2B32D1039B1A1D1B68039243EA2D
:10365000E37302340593DFF8D4A0217803225046A7
:10366000FCF726FF38B1049BA0EB0A004022824001
:1036700013430134049314F8011B29488DF82810D2
:103680000622FCF715FF00283FD0264B1BBB039BEF
:10369000073323F0070308330393099B3B44099343
:1036A0006AE70CFB02320C460120A8E70023013434
:1036B000059319464FF00A0C204610F8012B303ABA
:1036C000092A03D9002BC6D00591C4E70CFB0121C0
:1036D00004460123F0E703AB00932A46124B04A9EA
:1036E0003046AFF300800746781CD6D16B6ED90701
:1036F00005D4AB899A0502D4A86DFDF7A3F8AB8970
:103700005B063FF51FAF09981EE703AB00932A46FF
:10371000054B04A9304600F079F8E4E7C83C0008FE
:10372000D23C000800000000DB340008CE3C00085A
:103730002DE9F047164698468A680B69DDF8209017
:103740009342B8BF1346336091F8432007460C46B6
:103750000AB1013333602368990642BF33680233EC
:103760003360256815F0060506D104F1190AE368EF
:1037700032689B1AAB4226DC94F843302268003B47
:1037800018BF012392062BD404F143024146384668
:10379000C84701301ED02368226903F00603042BBA
:1037A00002BFE5683368ED1AA3680CBF25EAE5752A
:1037B00000259342C4BF9B1AED1800261A34B54267
:1037C0001AD1002008E00123524641463846C84736
:1037D000013003D14FF0FF30BDE8F0870135C6E777
:1037E000E1185A1C302081F84300224494F8451017
:1037F00082F843100233C7E7012322464146384688
:10380000C8470130E6D00136D9E700002DE9FF476F
:103810000F7E0C9E782F914680460C469A4601F109
:10382000430207D8622F0AD8002F00F0D180582F0A
:1038300000F0B88004F1420684F842703AE0A7F143
:103840006303152BF6D801A151F823F0A538000821
:10385000B938000835380008353800083538000810
:1038600035380008B9380008353800083538000800
:103870003538000835380008B7390008E338000843
:10388000713900083538000835380008D939000882
:1038900035380008E33800083538000835380008A6
:1038A0007939000833681A1D1B68326004F142063A
:1038B00084F8423001239CE033682068191D316090
:1038C000060601D51D6803E04506FBD5B3F9005097
:1038D000002D03DA2D236D4284F8433058480A2323
:1038E00011E021683368080653F8045B02D44906E6
:1038F00048BFADB26F2F5248336014BF0A2308236C
:10390000002184F843106668A660002E05DB21685C
:103910002E4321F0040121604BD01646B5FBF3F194
:1039200003FB1157C75D06F8017D2F46BB420D46CC
:10393000F4D9082B0BD12368DF0708D52369616808
:103940009942DEBF302306F8013C06F1FF36921B98
:103950002261CDF800A04B4603AA21464046FFF75E
:10396000E7FE01304AD14FF0FF3004B0BDE8F087E8
:10397000236843F0200323603248782784F8457099
:10398000236831681F0651F8045B02D45F0648BF04
:10399000ADB23160D90744BF43F0200323601DB1AD
:1039A0001023ADE72648E9E7236823F020032360CE
:1039B000F6E71646BDE7336825686169181D306073
:1039C0002E061B6801D5196002E06806FBD5198038
:1039D000002323611646BCE733681A1D32601E6857
:1039E000626800213046FCF763FD08B1801B60600F
:1039F00063682361002384F84330AAE723693246D1
:103A000049464046D0470130ADD023689B0713D4C8
:103A1000E068039B9842B8BF1846A6E701233246E8
:103A200049464046D04701309DD00135E3680399AF
:103A30005B1AAB42F2DCEBE7002504F11906F5E76F
:103A4000D93C0008EA3C000870B50C46B1F90E10EC
:103A5000002996B015461E460DDAA38913F0800F93
:103A60004FF0000114BF40234FF480630020316009
:103A70002B6016B070BD6A4600F048F80028ECDBF9
:103A8000019901F47041A1F50053594259414FF495
:103A90008063EBE78B89F7B59D0706460C4607D593
:103AA00004F14703236023610123636103B0F0BD88
:103AB00001AB6A46FFF7C8FF009F0546394630460E
:103AC000FCF72EFF48B9B4F90C309A05EED423F078
:103AD000030343F00203A381E2E7A389206043F0DC
:103AE0008003A381019BC4E904075BB1B4F90E1004
:103AF000304600F01DF828B1A38923F0030343F0FA
:103B00000103A381A3891D43A581CFE738B5074DE4
:103B100000230446084611462B60FFF79EFA431C1B
:103B200002D12B6803B1236038BD00BFC80100205B
:103B300038B5064D0023044608462B60FFF792FA7D
:103B4000431C02D12B6803B1236038BDC80100209B
:103B5000F8B500BFF8BC08BC9E467047F8B500BF7A
:083B6000F8BC08BC9E4670474A
:103B680012000000240000003600000040000000A1
:103B78000000000001000000020000000300000037
:103B8800A0860100400D0300801A060000350C00D5
:103B980040420F0080841E0000093D0000127A0098
:103BA8000024F40000366E010048E801006CDC02D5
:103BB80000000000000000000000000000000000FD
:103BC80000000000000000000000000000000000ED
:103BD80001000000020000000300000004000000D3
:103BE80001000000030000000500000001000000C3
:103BF80001000000060000000A000000200000008C
:103C0800020000000400000008000000100000008E
:103C180040000000800000000001000000020000D9
:103C2800010002000400060008000A000C00100051
:103C38002000400080000001436F756C64206E6FA7
:103C4800742066696E6420612076616C6964205214
:103C58005443204D6F64756C65210D005254432008
:103C68004D6F64756C652044657465637465642183
:103C78000D00253032643A253032643A25303264FA
:103C88002C2025730D0A0053756E646179004D6F01
:103C98006E64617900547565736461790057656471
:103CA8006E65736461790054687572736461790034
:103CB8004672696461790053617475726461790050
:103CC800232D302B2000686C4C00656667454647FD
:103CD8000030313233343536373839414243444580
:103CE80046003031323334353637383961626364EF
:103CF800656600008F3C0008963C00089D3C000863
:103D0800A53C0008AF3C0008B83C0008BF3C0008D0
:083D180098C4FF7F01000000C8
:043D20006501000831
:043D24004101000851
:103D280000000000030000008C00002018000020A4
:103D3800000000008C000020F40000205C0100203E
:103D4800000000000000000000000000000000006B
:103D5800000000000000000000000000000000005B
:103D6800000000000000000000000000000000004B
:103D780000000000000000000000000000093D00F5
:083D8800010000001000000022
:04000005080030853A
:00000001FF
